:100000000C9435000C945D000C945D000C94480435
:100010000C945D000C9448040C945D000C945D00FD
:100020000C945D000C945D000C945D000C9427030F
:100030000C94F9020C945D000C945D000C945D002E
:100040000C94AF020C945D000C947D020C9457024A
:100050000C945D000C945D000C945D000C945D00AC
:100060000C945D000C945D003B0611241FBECFEF85
:10007000D8E0DEBFCDBF11E0A0E0B1E0E6E3FDE0F7
:1000800002C005900D92AA36B107D9F722E0AAE680
:10009000B1E001C01D92AB32B207E1F710E0C5E359
:1000A000D0E004C02197FE010E948A06C433D10724
:1000B000C9F70E9484040C9499060C940000282F20
:1000C00030E0883090F421E030E0A90102C0440F14
:1000D000551F8A95E2F7CA019AB1662319F0892B58
:1000E0008AB9089580958923FBCF2850310981E092
:1000F00090E001C0880F2A95EAF794B1662319F0C1
:10010000892B84B9089580958923FBCFAF92BF9244
:10011000CF92DF92EF92FF920F931F93CF93DF93D3
:100120006C017B018B01040F151FEB015E01AE1802
:10013000BF08C017D10759F06991D601ED91FC9124
:100140000190F081E02DC6010995892B79F7C50151
:10015000DF91CF911F910F91FF90EF90DF90CF90A3
:10016000BF90AF900895FC01538D448D252F30E052
:10017000842F90E0821B930B541710F0CF960895B4
:1001800001970895FC01918D828D981761F0A28DE1
:10019000AE0FBF2FB11D5D968C91928D9F5F9F73A7
:1001A000928F90E008958FEF9FEF0895FC01918D5D
:1001B000828D981731F0828DE80FF11D858D90E0CA
:1001C00008958FEF9FEF0895FC01918D228D892F67
:1001D00090E0805C9F4F821B91098F73992708954F
:1001E0008EE891E00E94E40021E0892B09F420E0F0
:1001F000822F089580E090E0892B29F00E94F00082
:1002000081110C9400000895FC01A48DA80FB92F52
:10021000B11DA35ABF4F2C91848D90E001968F732E
:100220009927848FA689B7892C93A089B1898C914D
:10023000837080648C93938D848D981306C002889C
:10024000F389E02D80818F7D80830895EF92FF9266
:100250000F931F93CF93DF93EC0181E0888F9B8DE9
:100260008C8D98131AC0E889F989808185FF15C0A3
:100270009FB7F894EE89FF896083E889F9898081C6
:100280008370806480839FBF81E090E0DF91CF9195
:100290001F910F91FF90EF900895F62E0B8D10E0B7
:1002A0000F5F1F4F0F731127E02E8C8D8E110CC026
:1002B0000FB607FCFACFE889F989808185FFF5CF71
:1002C000CE010E940401F1CFEB8DEC0FFD2FF11D4B
:1002D000E35AFF4FF0829FB7F8940B8FEA89FB89AE
:1002E00080818062CFCFCF93DF93EC01888D88230C
:1002F000B9F0AA89BB89E889F9898C9185FD03C089
:10030000808186FD0DC00FB607FCF7CF8C9185FF6D
:10031000F2CF808185FFEDCFCE010E940401E9CFAD
:10032000DF91CF9108953FB7F89480916F0190913C
:100330007001A0917101B091720126B5A89B05C012
:100340002F3F19F00196A11DB11D3FBFBA2FA92F54
:10035000982F8827BC01CD01620F711D811D911D51
:1003600042E0660F771F881F991F4A95D1F70895BD
:10037000282F30E0883058F429B130E0A90102C0BC
:10038000559547958A95E2F7CA018170089583B122
:1003900090E02850310902C0959587952A95E2F79B
:1003A000F4CF282F30E0883090F421E030E0A9012C
:1003B00002C0440F551F8A95E2F7CA019BB166231C
:1003C00019F0892B8BB9089580958923FBCF28508C
:1003D000310981E090E001C0880F2A95EAF795B1D4
:1003E000662319F0892B85B9089580958923FBCF61
:1003F000FC0101900020E9F73197AF01481B590B30
:10040000BC018EE891E00C9486008F929F92AF928F
:10041000BF920F931F93CF93DF93CDB7DEB7A19712
:100420000FB6F894DEBF0FBECDBF19A2423008F45C
:100430004AE08E010F5D1F4F842E912CB12CA12C10
:10044000A50194010E946806E62FB901CA01EA30AD
:10045000F4F4E05DD801EE938D01232B242B252BA2
:1004600079F790E080E0109719F0CD010E94F80133
:10047000A1960FB6F894DEBF0FBECDBFDF91CF912E
:100480001F910F91BF90AF909F908F900895E95C5E
:10049000E1CFCF93DF930E94F801EC0182E191E07C
:1004A0000E94F8018C0F9D1FDF91CF9108951F923C
:1004B0000F920FB60F9211242F933F934F935F9398
:1004C0006F937F938F939F93AF93BF93EF93FF931C
:1004D0008EE891E00E940401FF91EF91BF91AF91EE
:1004E0009F918F917F916F915F914F913F912F914C
:1004F0000F900FBE0F901F9018951F920F920FB67E
:100500000F9211242F938F939F93EF93FF93E0917A
:100510009E01F0919F018081E091A401F091A501DD
:1005200082FD1BC090818091A7018F5F8F73209106
:10053000A801821741F0E091A701F0E0E257FE4FD9
:10054000958F8093A701FF91EF919F918F912F91AC
:100550000F900FBE0F901F9018958081F4CF1F92BF
:100560000F920FB60F9211242F933F938F939F9367
:10057000AF93BF9380916B0190916C01A0916D013D
:10058000B0916E0130916A0123E0230F2D3758F5A9
:100590000196A11DB11D20936A0180936B01909378
:1005A0006C01A0936D01B0936E0180916F019091E9
:1005B0007001A0917101B09172010196A11DB11D50
:1005C00080936F0190937001A0937101B0937201B9
:1005D000BF91AF919F918F913F912F910F900FBE3F
:1005E0000F901F90189526E8230F0296A11DB11DAC
:1005F000D2CF1F920F920FB60F9211242F933F93D9
:100600008F939F9380918B0190918C012091770122
:10061000309178018217930760F010928100109258
:100620006F00209168002A7F2093680025E02093C6
:100630007A01019690938C0180938B019F918F9109
:100640003F912F910F900FBE0F901F9018951F9202
:100650000F920FB60F9211242F933F934F935F93F6
:100660006F937F938F939F93AF93BF93EF93FF937A
:1006700080917A01833009F06EC0809189018111E7
:100680004DC010928A01809189018F5F809389010A
:10069000893099F51092810080918701E82FF0E070
:1006A000ED58FE4F90918A0190878F5F809387016C
:1006B0008150990B20918801281719060CF445C028
:1006C0008BB385608BBB80916800856080936800E8
:1006D0008091770190917801892B79F084E086BB35
:1006E00080936F00109285001092840089E18093BE
:1006F000810010928C0110928B01FF91EF91BF91BC
:10070000AF919F918F917F916F915F914F913F91A9
:100710002F910F900FBE0F901F901895893008F001
:10072000B2CF80918A0190E09595879580938A0158
:10073000809174010E94B80190E0811190E880914D
:100740008A01892B80938A019ECF84E080937A016D
:1007500010926F00D2CF823009F073C0809189016E
:1007600060E0882399F1893070F560918A016170A9
:10077000809173010E94D10180918A0190E095954A
:10078000879580938A01809189018F5F8093890189
:100790008A3008F4B2CFE0918701EF5FE0938701E0
:1007A00080918601E81708F445C01092810080917D
:1007B0008801811110C084E080937A0110926F004B
:1007C000109289019ACF8930F1F661E0809173012E
:1007D0000E94D101D8CF83E080937A0182E0809398
:1007E00087018BB385608BBB8091680085608093A7
:1007F0006800809175019091760196958795C797CD
:10080000909389008093880080917701909178017E
:10081000892BB1F284E086BB80936F001092850033
:100820001092840089E18093810010928C011092D3
:100830008B01C6CFF0E0ED58FE4F808580938A0192
:10084000BFCF813009F059CF8091890160E08823C2
:1008500029F090917901891305C061E080917301BD
:100860000E94D101809189018F5F809389019091CD
:100870007901981708F041CFE0918701F0E0ED5839
:10088000FE4F808580938A0182E080937A0198CF21
:100890001F920F920FB60F9211242F933F934F93F5
:1008A0005F936F937F938F939F93AF93BF93EF93D8
:1008B000FF93809174010E94B801811114C01092BD
:1008C0008100109285001092840082E086BB8093A4
:1008D0006F0089E180938100809168008A7F809316
:1008E000680010928901FF91EF91BF91AF919F91A4
:1008F0008F917F916F915F914F913F912F910F90C9
:100900000FBE0F901F901895CF93DF9300D000D0AB
:10091000CDB7DEB7789484B5826084BD84B581603C
:1009200084BD85B5826085BD85B5816085BD8091BA
:100930006E00816080936E00109281008091810032
:10094000826080938100809181008160809381002A
:10095000809180008160809380008091B1008460EC
:100960008093B1008091B00081608093B00080914D
:100970007A00846080937A0080917A00826080930C
:100980007A0080917A00816080937A0080917A0069
:10099000806880937A001092C100E0919E01F091EE
:1009A0009F0182E08083E0919A01F0919B01108287
:1009B000E0919C01F0919D0187E680831092A60151
:1009C000E091A201F091A30186E08083E091A00173
:1009D000F091A101808180618083E091A001F0917C
:1009E000A101808188608083E091A001F091A10144
:1009F000808180688083E091A001F091A1018081D5
:100A00008F7D8083109280001092810010926F0081
:100A1000809168008A7F8093680010926B0010922A
:100A20006D0060E0809173010E945F0060E0809142
:100A300073010E94D10160E0809174010E945F0007
:100A400060E0809174010E94D10110927A0188E0E7
:100A50008093730189E08093740180E09BE490931C
:100A60007801809377018DE08093790180E493E0B1
:100A70009093760180937501209A61E080917301D3
:100A80000E94D10160E0809174010E945F0061E0EA
:100A9000809174010E94D10110926B0010926D0040
:100AA00080916B00816080936B0080916B0082600D
:100AB00080936B0010928D0192E0392ECC24C39468
:100AC000D12C8E010F5F1F4F30E0E32E30E0F32E6C
:100AD00042E0242EB0908D0121E0B216E9F1B21669
:100AE00070F082E0B81609F474C0E114F10491F3D7
:100AF0000E94F000882371F30E940000EBCF85E193
:100B000091E00E9449020E9493012B013C0188EE72
:100B1000882E83E0982EA12CB12C0E949301641999
:100B2000750986099709683E734081059105A8F308
:100B3000E1E08E1A9108A108B108F8EE4F0EF3E03B
:100B40005F1E611C711C81149104A104B10429F77A
:100B500081E080938D01C9CF82E291E00E94490239
:100B600080917A01882339F08DE291E00E94490258
:100B700010928D01BACFB0927A01E5E5E0937B0146
:100B8000F1ECF0937C01209286011092870124E021
:100B900020938801109289018091750190917601CE
:100BA0009093870080938600D0928900C09288003D
:100BB00010928B0010928A0010928500109284008F
:100BC00036BA30926F0089E18093810020928D01C6
:100BD0008CCF80917A01843041F0853009F441C096
:100BE000811183CF87E591E0C1CFB0907C019090D7
:100BF0008801992039F0492D50E06DE771E0C80176
:100C00000E94900610927A0189E391E00E94F80117
:100C10006B2D70E090E080E040E10E94050281E4ED
:100C200091E00E94F801692D70E090E080E04AE0D8
:100C30000E94050283E491E00E94F80158018A2D88
:100C4000801B891598F481E491E00E94F801F50178
:100C500061915F0170E090E080E040E10E94050258
:100C6000EECF10927A0186E491E080CF82E191E0AC
:100C70000E94F8017DCFEEE8F1E01382128288EE47
:100C800093E0A0E0B0E084839583A683B78384E0FB
:100C900091E09183808385EC90E09587848784EC54
:100CA00090E09787868780EC90E0918B808B81EC39
:100CB00090E0938B828B82EC90E0958B848B86EC1A
:100CC00090E0978B868B118E128E138E148E089562
:100CD000A1E21A2EAA1BBB1BFD010DC0AA1FBB1F40
:100CE000EE1FFF1FA217B307E407F50720F0A21BB2
:100CF000B30BE40BF50B661F771F881F991F1A941F
:100D000069F760957095809590959B01AC01BD0148
:100D1000CF010895EE0FFF1F0590F491E02D099487
:100D2000FB01DC0102C001900D9241505040D8F708
:060D30000895F894FFCFC6
:100D36000000000026018600B3007301E400C20033
:100D4600D6000D0A002E2E2E2077616974202E2ED5
:100D56002E007175657279203078433100717565A2
:100D66007279206572726F7200726573706F6E733E
:100D7600652000202D00726573706F6E7365207498
:100D8600696D656F757400726573706F6E7365203B
:0A0D96006E6F207175657279000020
:00000001FF
